{
  "contractName": "Waitlist",
  "abi": [
    {
      "constant": true,
      "inputs": [],
      "name": "get",
      "outputs": [
        {
          "name": "",
          "type": "address[]"
        }
      ],
      "payable": false,
      "stateMutability": "view",
      "type": "function"
    },
    {
      "constant": true,
      "inputs": [
        {
          "name": "",
          "type": "uint256"
        }
      ],
      "name": "list",
      "outputs": [
        {
          "name": "",
          "type": "address"
        }
      ],
      "payable": false,
      "stateMutability": "view",
      "type": "function"
    },
    {
      "constant": true,
      "inputs": [],
      "name": "owner",
      "outputs": [
        {
          "name": "",
          "type": "address"
        }
      ],
      "payable": false,
      "stateMutability": "view",
      "type": "function"
    },
    {
      "constant": false,
      "inputs": [],
      "name": "pop",
      "outputs": [
        {
          "name": "",
          "type": "address"
        }
      ],
      "payable": false,
      "stateMutability": "nonpayable",
      "type": "function"
    },
    {
      "constant": false,
      "inputs": [],
      "name": "join",
      "outputs": [],
      "payable": false,
      "stateMutability": "nonpayable",
      "type": "function"
    },
    {
      "constant": true,
      "inputs": [],
      "name": "getNextInQueue",
      "outputs": [
        {
          "name": "",
          "type": "uint256"
        }
      ],
      "payable": false,
      "stateMutability": "view",
      "type": "function"
    },
    {
      "inputs": [],
      "payable": false,
      "stateMutability": "nonpayable",
      "type": "constructor"
    },
    {
      "anonymous": false,
      "inputs": [
        {
          "indexed": true,
          "name": "_from",
          "type": "address"
        },
        {
          "indexed": false,
          "name": "_value",
          "type": "address"
        }
      ],
      "name": "ReturnValue",
      "type": "event"
    }
  ],
  "bytecode": "0x6060604052341561000f57600080fd5b60018054600160a060020a033316600160a060020a031990911617905560006002556103a5806100406000396000f300606060405236156100755763ffffffff7c01000000000000000000000000000000000000000000000000000000006000350416636d4ce63c811461007a57806380c9419e146100e05780638da5cb5b14610112578063a4ece52c14610125578063b688a36314610138578063d56fa7651461014d575b600080fd5b341561008557600080fd5b61008d610172565b60405160208082528190810183818151815260200191508051906020019060200280838360005b838110156100cc5780820151838201526020016100b4565b505050509050019250505060405180910390f35b34156100eb57600080fd5b6100f66004356101db565b604051600160a060020a03909116815260200160405180910390f35b341561011d57600080fd5b6100f6610203565b341561013057600080fd5b6100f6610212565b341561014357600080fd5b61014b6102b8565b005b341561015857600080fd5b61016061031a565b60405190815260200160405180910390f35b61017a610320565b60008054806020026020016040519081016040528092919081815260200182805480156101d057602002820191906000526020600020905b8154600160a060020a031681526001909101906020018083116101b2575b505050505090505b90565b60008054829081106101e957fe5b600091825260209091200154600160a060020a0316905081565b600154600160a060020a031681565b600154600090819033600160a060020a0390811691161461023257600080fd5b6002546000541161024257600080fd5b600060025481548110151561025357fe5b600091825260209091200154600280546001019055600160a060020a03908116915033167fe3b3f7a1e789a5334be27d25b84caf7effa0932ea771ce9a3f97ef64ab16ba7182604051600160a060020a03909116815260200160405180910390a25090565b60015433600160a060020a03908116911614156102d457600080fd5b60008054600181016102e68382610332565b506000918252602090912001805473ffffffffffffffffffffffffffffffffffffffff191633600160a060020a0316179055565b60025490565b60206040519081016040526000815290565b8154818355818115116103565760008381526020902061035691810190830161035b565b505050565b6101d891905b808211156103755760008155600101610361565b50905600a165627a7a72305820b89fafc4471743407f69e0bbf3dfd2d288b05d72d09b1c1d50a8deaf7ad397b10029",
  "source": "pragma solidity ^0.4.15;\n\ncontract Waitlist {\n  address[] public list;\n  address public owner;\n  uint nextInQueue;\n\n  event ReturnValue(address indexed _from, address _value);\n\n  function Waitlist() public {\n    owner = msg.sender;\n    nextInQueue = 0;\n  }\n\n  // Modifiers\n  modifier onlyOwner() { require(msg.sender == owner); _; }\n  modifier notOwner() { require(msg.sender != owner); _; }\n\n  function join() notOwner public {\n    list.push(msg.sender);\n  }\n\n  function get() constant public returns(address[]) {\n    return list;\n  }\n\n  function pop() onlyOwner public returns(address) {\n    require(list.length > nextInQueue);\n    address user = list[nextInQueue];\n    nextInQueue++;\n    ReturnValue(msg.sender, user);\n  }\n\n  function getNextInQueue() constant public returns(uint) {\n    return nextInQueue;\n  }\n\n}\n",
  "sourcePath": "/Users/ziemek/projects/personal_projects/ethereum_hello_world/eth-waitlist/contracts/Waitlist.sol",
  "schemaVersion": "1.0.0",
  "updatedAt": "2017-10-15T01:36:21.656Z"
}